:040C000063EF06F0A8
:060C08004A825DED16F0CA
:100C18004A80D8CF60F0E8CF61F0E0CF62F0FACF39
:100C280063F0FBCF64F0E9CF65F0EACF66F0E1CF7F
:100C380067F0E2CF68F0D9CF69F0DACF6AF0F3CF86
:100C48006BF0F4CF6CF0F6CF6DF0F7CF6EF0F8CF15
:100C58006FF0F5CF70F04AC071F04BC072F04CC025
:100C680073F04DC074F074C04DF073C04CF072C096
:100C78004BF071C04AF070C0F5FF6FC0F8FF6EC04E
:100C8800F7FF6DC0F6FF6CC0F4FF6BC0F3FF6AC0DE
:100C9800DAFF69C0D9FF68C0E2FF67C0E1FF66C03C
:100CA800EAFF65C0E9FF64C0FBFF63C0FAFF62C0EA
:100CB800E0FF61C0E8FF60C0D8FF4A9010004CEF29
:100CC80011F0000101010101010101020202020209
:100CD800000000000000010204081020408040804D
:100CE8000102040102040820100100000507206029
:100CF800000000000000004F00000007000700147B
:100D08007F147F14242A7F2A122313086462364929
:100D18005522500005030000001C2241000041221A
:100D28001C0014083E081408083E0808005030004B
:100D38000008080808080060600000201008040285
:100D48003E5149453E00427F40004261514946219B
:100D580041454B311814127F1027454545393C4A07
:100D68004949300171090503364949493606494957
:100D7800291E3636000000563600000008142241AD
:100D88000014141414140041221408020151090615
:100D9800304979413E7E1111117E7F494949363EDD
:100DA800414141227F4141221C7F494949417F09F4
:100DB8000909013E4149497A7F0808087F00417FB7
:100DC80041002040413F017F081422417F404040BC
:100DD800407F020C027F7F0408107F3E4141413E64
:100DE8007F090909063E4151215E7F0919294646B6
:100DF8004949493101017F01013F4040403F1F20DF
:100E080040201F3F4030403F6314081463070870B8
:100E180008076151494543007F4141000204081019
:100E2800200041417F00040201020440404040404C
:100E3800000102040020545454787F504848303848
:100E480044444420384444487F3854545418087E55
:100E58000901020C5252523E7F0804047800447D76
:100E680040002040443D007F1028440000417F405E
:100E78000078045844787C0804047838444444389A
:100E88007C14141408081414187C7C0804040848FA
:100E980054545420043F4440203C4040207C1C20B3
:100EA80040201C3C4030403C44281028440C505002
:100EB800503C4464544C44000836410000007F0014
:100EC8000000413608000C020C100C000000000065
:100ED8004445564943453A2048432D30360D0A0DBE
:100EE8000A50415353574F52443A20313233340059
:100EF800286E756C6C29002430302400243031248D
:100F080000243032240024303324002430342400D8
:0B0F1800243035240024636C2400000A
:100F2400000E01018B6F020E8A6F000E8C6F91D33D
:100F3400000E8D6F000E8E6F000E8F6F000E906F7F
:100F4400000E936F82C1F6FF83C1F7FF0800F550CE
:100F5400250AD8A46DD3000E926F92C191F1824BF1
:100F6400832B82C1F6FF83C1F7FF0800F550000907
:100F7400D8B478D382C1F6FF83C1F7FF0800F550D7
:100F8400250AD8B455D382C1F6FF83C1F7FF080000
:100F9400F5502D0AD8A404D0824B832B010E926FF6
:100FA40082C1F6FF83C1F7FF0800F550300AD8A4C8
:100FB40012D0824B832B92830ED00A0E9103F350EE
:100FC400916F82C1F6FF83C1F7FF0800F550D00F7F
:100FD4009127824B832B82C1F6FF83C1F7FF2F0E2B
:100FE4000800F56408D082C1F6FF83C1F7FF390E0B
:100FF4000800F564E2D782C1F6FF83C1F7FF080059
:10100400F5502E0AD8A423D0824B832B000E8A6F6E
:101014000ED00A0E8A03F3508A6F82C1F6FF83C191
:10102400F7FF0800F550D00F8A27824B832B82C12B
:10103400F6FF83C1F7FF2F0E0800F56408D082C1C4
:10104400F6FF83C1F7FF390E0800F564E2D782C1C9
:10105400F6FF83C1F7FF0800F550660AD8A425D02F
:1010640080C188F081C189F084C1D9FF85C1DAFFCC
:10107400DFCFB8F0030EDE26DFCFB9F0000EDD229D
:10108400B8C0D9FFB9C0DAFFDECF8AF0DECF8BF06B
:10109400DDCF8CF091C18DF092C18EF08CC18FF0B8
:1010A4008AC190F0EBEC0CF0C0D282C1F6FF83C190
:1010B400F7FF0800F550730AD8A436D084C1D9FFCD
:1010C40085C1DAFFDFCFB8F0020EDE26DFCFB9F03C
:1010D400000EDD22B8C0D9FFB9C0DAFFDECF88F137
:1010E400DDCF89F188518911D8B40FD080C11AF0AD
:1010F40081C11BF088C11CF089C11DF091C11EF093
:1011040092C11FF0C8EC10F090D280C11AF081C1D6
:101114001BF0F80E1C6E0E0E1D6E91C11EF092C1D6
:101124001FF0C8EC10F081D282C1F6FF83C1F7FF33
:101134000800F5506C0AD8A404D0824B832B010E0E
:10114400936F82C1F6FF83C1F7FF0800F550750A5B
:10115400D8A454D09351D8A41BD084C1D9FF85C13D
:10116400DAFFDFCFB8F0020EDE26DFCFB9F0000ED3
:10117400DD22B8C0D9FFB9C0DAFFDECFBAF0DDCFC7
:10118400BBF0BAC08DF1BBC08EF18F6B906B18D0E1
:1011940084C1D9FF85C1DAFFDFCFB8F0040EDE26A3
:1011A400DFCFB9F0000EDD22B8C0D9FFB9C0DAFF35
:1011B400DECF8DF1DECF8EF1DECF8FF1DECF90F179
:1011C40080C175F081C176F08DC177F08EC178F061
:1011D4008FC179F090C17AF093C17BF00A0E0001BF
:1011E4007C6F000E7D6F91C17EF092C17FF08CC147
:1011F40080F0610E816F21EC0EF017D282C1F6FFF0
:1012040083C1F7FF0800F550640AD8B409D082C13D
:10121400F6FF83C1F7FF0800F550690AD8A454D03B
:101224009351D8A41BD084C1D9FF85C1DAFFDFCF85
:10123400B8F0020EDE26DFCFB9F0000EDD22B8C012
:10124400D9FFB9C0DAFFDECFBAF0DDCFBBF0BAC048
:101254008DF1BBC08EF18F6B906B18D084C1D9FF18
:1012640085C1DAFFDFCFB8F0040EDE26DFCFB9F098
:10127400000EDD22B8C0D9FFB9C0DAFFDECF8DF190
:10128400DECF8EF1DECF8FF1DECF90F180C175F02D
:1012940081C176F08DC177F08EC178F08FC179F07D
:1012A40090C17AF093C17BF00A0E00017C6F010EAD
:1012B4007D6F91C17EF092C17FF08CC180F0610E90
:1012C400816F21EC0EF0B1D182C1F6FF83C1F7FF2B
:1012D4000800F550780AD8B409D082C1F6FF83C15A
:1012E400F7FF0800F550700AD8A454D09351D8A43D
:1012F4001BD084C1D9FF85C1DAFFDFCFB8F0020E5D
:10130400DE26DFCFB9F0000EDD22B8C0D9FFB9C0A8
:10131400DAFFDECFBAF0DDCFBBF0BAC08DF1BBC0CF
:101324008EF18F6B906B18D084C1D9FF85C1DAFF21
:10133400DFCFB8F0040EDE26DFCFB9F0000EDD22D9
:10134400B8C0D9FFB9C0DAFFDECF8DF1DECF8EF1A0
:10135400DECF8FF1DECF90F180C175F081C176F0E0
:101364008DC177F08EC178F08FC179F090C17AF099
:1013740093C17BF0100E00017C6F000E7D6F91C154
:101384007EF092C17FF08CC180F0610E816F21EC00
:101394000EF04BD182C1F6FF83C1F7FF0800F55070
:1013A400580AD8B409D082C1F6FF83C1F7FF0800F8
:1013B400F550500AD8A454D09351D8A41BD084C15A
:1013C400D9FF85C1DAFFDFCFB8F0020EDE26DFCF0A
:1013D400B9F0000EDD22B8C0D9FFB9C0DAFFDECF04
:1013E400BAF0DDCFBBF0BAC08DF1BBC08EF18F6B0C
:1013F400906B18D084C1D9FF85C1DAFFDFCFB8F074
:10140400040EDE26DFCFB9F0000EDD22B8C0D9FF0E
:10141400B9C0DAFFDECF8DF1DECF8EF1DECF8FF1F2
:10142400DECF90F180C175F081C176F08DC177F087
:101434008EC178F08FC179F090C17AF093C17BF0BE
:10144400100E00017C6F000E7D6F91C17EF092C181
:101454007FF08CC180F0410E816F21EC0EF0E5D05D
:1014640082C1F6FF83C1F7FF0800F550620AD8A4D1
:1014740054D09351D8A41BD084C1D9FF85C1DAFFBD
:10148400DFCFB8F0020EDE26DFCFB9F0000EDD228A
:10149400B8C0D9FFB9C0DAFFDECFBAF0DDCFBBF0F8
:1014A400BAC08DF1BBC08EF18F6B906B18D084C124
:1014B400D9FF85C1DAFFDFCFB8F0040EDE26DFCF17
:1014C400B9F0000EDD22B8C0D9FFB9C0DAFFDECF13
:1014D4008DF1DECF8EF1DECF8FF1DECF90F180C1C2
:1014E40075F081C176F08DC177F08EC178F08FC12F
:1014F40079F090C17AF093C17BF0020E00017C6F09
:10150400000E7D6F91C17EF092C17FF08CC180F09E
:10151400610E816F21EC0EF088D082C1F6FF83C189
:10152400F7FF0800F5506F0AD8A454D09351D8A4FB
:101534001BD084C1D9FF85C1DAFFDFCFB8F0020E1A
:10154400DE26DFCFB9F0000EDD22B8C0D9FFB9C066
:10155400DAFFDECFBAF0DDCFBBF0BAC08DF1BBC08D
:101564008EF18F6B906B18D084C1D9FF85C1DAFFDF
:10157400DFCFB8F0040EDE26DFCFB9F0000EDD2297
:10158400B8C0D9FFB9C0DAFFDECF8DF1DECF8EF15E
:10159400DECF8FF1DECF90F180C175F081C176F09E
:1015A4008DC177F08EC178F08FC179F090C17AF057
:1015B40093C17BF0080E00017C6F000E7D6F91C11A
:1015C4007EF092C17FF08CC180F0610E816F21ECBE
:1015D4000EF02BD082C1F6FF83C1F7FF0800F5504F
:1015E400630AD8A434D084C1D9FF85C1DAFFDFCF20
:1015F400B8F0020EDE26DFCFB9F0000EDD22B8C04F
:10160400D9FFB9C0DAFFDF50866F000E876F80C143
:101614001AF081C11BF0860E1C6E010E1D6E91C165
:101624001EF092C11FF0C8EC10F001018B270FD0FF
:1016340080C117F081C118F082C1F6FF83C1F7FFA2
:101644000800F5CF19F0BEEC1AF001018B2B824B88
:10165400832B82C1F6FF83C1F7FF0800F550000910
:10166400D8A466D48B51120000017B6F000E0001D8
:10167400866F070ED025166E176A000E1722000E0D
:10168400196E080E186E32EC17F016500001856FB3
:10169400000E826F000E816FCF51C725766F000E4A
:1016A400C821776FC151786F796B7651785D775126
:1016B4007959D8B00CD0000EC86F000EC76F855191
:1016C400080DC951F324C96FCA51F420CA6FD0510F
:1016D400C925766F000ECA21776FC251786F796B76
:1016E4007651785D77517959D8B067D17B519BECAD
:1016F40013F063D100018551080DC951F324C96F5A
:10170400CA51F420CA6F1200000EC86F000EC76FD2
:101714001200CF51040DF3CF7EF07E51C725166E13
:10172400000EC821176E7EC018F0196AD7EC19F0A4
:1017340016500001C7271750C8231200D151755DF8
:10174400D8A014D0D251D1C076F0776B7627000E92
:1017540077237551786F796B7651785D7951800A6A
:101764007A6F7751800A7A59D8A002D0200E756F0B
:10177400D15100087525756F20EECDF0DECFF6FF50
:10178400DDCFF7FF0800F5500009D8A423D0010EDF
:10179400CD25766F000ECE21776F76C0F6FF77C029
:1017A400F7FF0800F5500009D8A414D0CFC086F084
:1017B40075518503F3CF16F0F4CF17F086C018F0F7
:1017C400196A58EC1BF0060E16240001816F000EF6
:1017D400172050D07551766F776B060E7627000E62
:1017E400772320EECDF0DECF78F0DDCF79F076519F
:1017F40078277751792378C0F6FF79C0F7FF08007E
:10180400F5CF86F0000E876F1BD08751766F776B0C
:10181400060E7627000E772320EECDF0DECF78F08B
:10182400DDCF79F0765178277751792378C0F6FFA8
:1018340079C0F7FF0800F5508127000E8223872B1B
:101844007551875DD8A0E1D785C016F0176A81C0AD
:1018540018F082C019F058EC1BF00001D251766FD9
:10186400776B1650762717507723060E7625816FEF
:10187400000E7721826FC7C083F0C9C080F0000ECC
:10188400876F89D087518603F3CF7CF0000E846F75
:1018940058D084517CC076F0776B7627000E77237E
:1018A400815176278251772320EECDF0DECF78F078
:1018B400DDCF79F0765178277751792378C0F6FF18
:1018C40079C0F7FF0800F5CF7DF0080ED06514D07D
:1018D4008739E842F80B080F7F6F7F51D05DD8B08D
:1018E4000BD0D05100087F25766F7629776F02D010
:1018F400D8907D33772FFCD70001845183C076F0D4
:10190400776B7627000E772380C078F0D8907833F1
:10191400D8907833D89078337851020DDB0EF324C5
:10192400D96E000EF420DA6EDECF79F0DDCF7AF0D6
:1019340076517925D96E77517A21DA6E7DC0DFFF31
:10194400842B8651845DD8A0A4D7865183C076F0B9
:10195400776B7627000E772380C078F0D8907833A1
:10196400D8907833D89078337851020DDB0EF32475
:10197400D96E000EF420DA6EDECF79F0DDCF7AF086
:1019840076517925D96E77517A21DA6E000EDF6EA1
:10199400080E8027872B8551875DD8A073D7865181
:1019A40083C076F0776B7627000E7723010E7625B9
:1019B400C76F000E7721C86F120000017551090A24
:1019C400D8B4A7D6030AD8B495D6070AD8B49CD6F7
:1019D400B5D69D0E0001B66F000EB76F910EAC6FB9
:1019E400000EAD6F000EA96F000EAA6F0B0EAE6F46
:1019F4008CAF27D08D51D8A48EA30CD088C017F0FB
:101A040089C018F02D0E196EBEEC1AF00001A92B36
:101A14008D0709D0B6C0D9FFB7C0DAFF2D0EDF6E2F
:101A2400B64BB72BAE078AC079F08BC07AF08CC066
:101A34007BF06BEC1BF079C08AF07AC08BF07BC032
:101A44008CF08AC016F08BC017F08CC018F044ECF0
:101A540012F016C0B2F017C0B3F018C0B4F019C039
:101A6400B5F0B2C075F0B3C076F0B4C077F0B5C0CD
:101A740078F034EC19F075C079F076C07AF077C05C
:101A84007BF06BEC1BF079C07CF07AC07DF07BC0FE
:101A94007EF08AC07FF08BC080F08CC081F0F1ECC6
:101AA4000FF07CC0AFF07DC0B0F07EC0B1F039D093
:101AB400B2C016F0B3C017F0B4C018F0B5C019F036
:101AC4000A0E1A6E000E1B6E000E1C6E000E1D6EAA
:101AD400D1EC18F01650300FACC0D9FFADC0DAFF0E
:101AE400DF6E0001AC4BAD2BB2C016F0B3C017F0E3
:101AF400B4C018F0B5C019F00A0E1A6E000E1B6EB1
:101B0400000E1C6E000E1D6EB5EC17F016C0B2F080
:101B140017C0B3F018C0B4F019C0B5F00001AA2B77
:101B2400AE070001B251B311B411B511D8B410D03D
:101B3400BFD7AC07D8A0AD07ACC0D9FFADC0DAFFA2
:101B4400B6C0E1FFB7C0E2FFDFCFE7FFB64BB72B6C
:101B5400AA07AA29D8A4EDD7060E906502D0060ECE
:101B6400906F9051AE5DD8A0AEC090F09051D8B4B3
:101B74004DD0B6C0D9FFB7C0DAFF2E0EDF6EB64B1C
:101B8400B72B3FD0AFC075F0B0C076F0B1C077F0DE
:101B9400000E786F200E796F410E7A6FC9EC11F048
:101BA40075C0AFF076C0B0F077C0B1F0AFC016F03A
:101BB400B0C017F0B1C018F044EC12F01650000198
:101BC400AB6FAB51300FB6C0D9FFB7C0DAFFDF6ED1
:101BD400B64BB72BAFC082F0B0C083F0B1C084F075
:101BE400AB517EEC1BF075C085F076C086F077C0F3
:101BF40087F0F8EC19F082C0AFF083C0B0F084C075
:101C0400B1F0000190079029D8A4BCD7B6C0D9FF81
:101C1400B7C0DAFF000EDF6EB64BB72B88C01AF0E0
:101C240089C01BF09D0E1C6E000E1D6E8DC01EF033
:101C34008EC01FF0C8EC10F00001A9251200000EA0
:101C440000018F6F000E8E6F77C094F078C095F00E
:101C540079C096F07AC097F07751781179117A119A
:101C6400D8A413D0300E826F000E836F75C01AF0A3
:101C740076C01BF0820E1C6E000E1D6E7EC01EF020
:101C84007FC01FF0C8EC10F0120000017D51D8B4E1
:101C94003AD00A0E7C19D8A436D07B51D8A47AAF96
:101CA4001BD0010E8F6F77C025F078C026F079C065
:101CB40027F07AC028F0251E261E271E281E252A56
:101CC400000E26222722282225C094F026C095F053
:101CD40027C096F028C097F07B51D8B478AF13D0C2
:101CE400010E8F6F77C025F078C026F0251E261EC2
:101CF400254A262A25C094F026C095F0000E95BFEB
:101D0400FF0E966F976F8D0E986F000E996F98C0A7
:101D1400D9FF99C0DAFF000EDF6E54D094C016F0DC
:101D240095C017F096C018F097C019F07C511A6E40
:101D34001B6A1C6A1D6AD1EC18F016C090F017C01B
:101D440091F018C092F019C093F0000193519211D0
:101D5400911104E10A0E905DD8A013D0C60E256E31
:101D6400FF0E266E8151276E286A2550272626509D
:101D740028222750902728509123000E9223000EEA
:101D840093239051300F9807D8A0990798C0D9FF92
:101D940099C0DAFFDF6E94C016F095C017F096C0B4
:101DA40018F097C019F07C511A6E1B6A1C6A1D6AE0
:101DB400B5EC17F016C094F017C095F018C096F063
:101DC40019C097F000019451951196119711D8A458
:101DD400A5D78F51D8B419D07E51D8A47FA30CD0E5
:101DE40075C017F076C018F02D0E196EBEEC1AF0FF
:101DF40000018E2B7E0709D09807D8A0990798C0B8
:101E0400D9FF99C0DAFF2D0EDF6E75C01AF076C0C7
:101E14001BF098C01CF099C01DF07EC01EF07FC05E
:101E24001FF0C8EC10F000018E2512000001876F2E
:101E340087C0DAF07D0E00017F6F000E806F7FC0D7
:101E4400D9FF80C0DAFFDF50486E020E7F27000EF4
:101E54008023000E166E010E186E900E176E8751B9
:101E6400BCEC15F0000E0001C86F000EC76F000E29
:101E7400CA6F000EC96F000EBD6F000EBE6F7F0EDD
:101E8400BF6F3F0EC06F800EC16F400EC26FAE0EAB
:101E94001D6E87518BEC1AF0D50E1D6E0001875113
:101EA4008BEC1AF0800E1D6E000187518BEC1AF03A
:101EB400A80E1D6E000187518BEC1AF03F0E1D6EAB
:101EC400000187518BEC1AF0D30E1D6E000187516F
:101ED4008BEC1AF0000E1D6E000187518BEC1AF08A
:101EE400400E1D6E000187518BEC1AF08D0E1D6E95
:101EF400000187518BEC1AF0000E0001826F140E62
:101F0400816F81C01DF087518BEC1AF0200E1D6E7D
:101F1400000187518BEC1AF0000E1D6E00018751F1
:101F24008BEC1AF0000E0001846FA10E836F83C046
:101F34001DF087518BEC1AF0DA0E1D6E00018751EB
:101F44008BEC1AF0120E1D6E000187518BEC1AF007
:101F5400000E0001866FC80E856F85C01DF0875185
:101F64008BEC1AF0810E1D6E000187518BEC1AF078
:101F7400CF0E1D6E000187518BEC1AF0D90E1D6E29
:101F8400000187518BEC1AF01F0E1D6E0001875162
:101F94008BEC1AF0DB0E1D6E000187518BEC1AF0EE
:101FA400100E1D6E000187518BEC1AF0A40E1D6EED
:101FB400000187518BEC1AF0A60E1D6E00018751AB
:101FC4008BEC1AF0AF0E1D6E000187518BEC1AF0EA
:101FD400000E246E960E236EBEEC12F012007EC02C
:101FE40023F0246A256A00017D35233601E3248029
:101FF4002350286E81C023F0246A256A8035233655
:1020040001E324802350276E2850D8B40BD02750E6
:10201400285CD8B00ED0285000082724236E180E50
:10202400236407D07FC07CF080C07DF081C07EF047
:1020340012002750D8B40BD02850275CD8B00ED04B
:10204400275000082824236E180E236407D07CC070
:102054007CF07DC07DF07EC07EF01200060E266E00
:102064007EBF268E81BF268C7D8FFF0E7C17FF0ED0
:102074007D17000E7E17808FFF0E7F17FF0E8017CF
:10208400000E81172750285CD8B01BD0D8907F371A
:1020940080378137270628502718D8B40DD0260654
:1020A40026C023F0070E2316D8B406D0EFD7D89055
:1020B4007E337D337C33282A27502818D8B41FD088
:1020C400F6D72850275CD8B01AD0D8907C377D3703
:1020D4007E37280628502718D8B40DD0260626C0E7
:1020E40023F0070E2316D8B406D0EFD7D890813347
:1020F40080337F33272A27502818D8A4F7D726AE51
:102104000CD0FF0E7C1BFF0E7D1BFF0E7E1B010EF1
:102114007C27000E7D23000E7E2326AC0CD0FF0E00
:102124007F1BFF0E801BFF0E811B010E7F27000EFD
:102134008023000E8123000E266E7C517F277D5163
:1021440080237E51812381AF0ED0FF0E7F1BFF0EB3
:10215400801BFF0E811B010E7F27000E8023000EC3
:102164008123010E266E7FC016F080C017F081C057
:1021740018F028C019F026C01AF0BAEC14F016C0F2
:102184007CF017C07DF018C07EF01200000E226EA5
:10219400200E236E000E246E1CC020F01DC021F002
:1021A40003D0242A204A212A20C0F6FF21C0F7FFA9
:1021B400F86A070EF76403D00800F55005D0F6CF8F
:1021C400E9FFF7CFEAFFEF500009D8A4EAD71E5081
:1021D400D8B40FD01E50245CD8A005D01EC024F063
:1021E400000E1E6E02D024501E5E1FA202D0300EBE
:1021F400236E1FB028D01E50D8B425D01AC017F0B3
:102204001BC018F023C019F0BEEC1AF0222A1E06D7
:10221400F2D71AC017F01BC018F01CC0F6FF1DC07F
:10222400F7FFF86A070EF76403D00800F55005D0ED
:10223400F6CFE9FFF7CFEAFFEF50196EBEEC1AF0C4
:10224400222A1C4A1D2A1CC0F6FF1DC0F7FFF86A8B
:10225400070EF76403D00800F55005D0F6CFE9FF68
:10226400F7CFEAFFEF500009D8B404D0240624289D
:10227400D8A4CFD71E50D8B40BD01AC017F01BC0A7
:1022840018F023C019F0BEEC1AF0222A1E06F2D769
:1022940022501200BA0EF66E370EF76E000EF86E6C
:1022A40001EEA0F010EE0CF00900F5CFEEFFE550C2
:1022B400E150FAE1AA0EF66E370EF76E000EF86ED4
:1022C40000EEDBF010EE10F00900F5CFEEFFE55064
:1022D400E150FAE16E0EF66E370EF76E000EF86EF0
:1022E40000EE29F010EE14F00900F5CFEEFFE550F2
:1022F400E150FAE106EE00F011EE00F0EE6AE5506E
:10230400E150FCE1E250FAE105EE01F07F0EEE6AE5
:10231400E806FDE104EE00F011EE00F0EE6AE5508F
:10232400E150FCE1E250FAE103EE00F011EE00F0BE
:10233400EE6AE550E150FCE1E250FAE102EE00F011
:1023440011EE00F0EE6AE550E150FCE1E250FAE1F2
:1023540001EE00F0800EEE6AE806FDE100EEBDF04D
:102364001E0EEE6AE806FDE100EE3DF00D0EEE6A8B
:10237400E806FDE105EE00F0010EEE6AE806FDE177
:102384004A904A92000EF86E000171EF1AF077C07D
:102394001EF01F6A206A000176351E3601E31F8095
:1023A4001E50216E2150D8A407D0000E756F000E68
:1023B400766F000E776F12007AC01EF01F6A206AD3
:1023C40079351E3601E31F801E50266E2650D8A490
:1023D40007D0000E756F000E766F000E776F120037
:1023E40026507B0F212677C026F07A51261A800EBC
:1023F4002616768F798FFF0E7817FF0E7917000E49
:102404007A17000E226E000E236E000E246E070E45
:10241400256E75A106D078512226795123227A514E
:102424002422D890773376337533D8907837793738
:102434007A37252EEED7090E256E75A106D0785170
:102444002226795123227A512422D8907733763365
:102454007533D890243223322232252EEED722C06F
:1024640016F023C017F024C018F021C019F026C0BC
:102474001AF0BAEC14F016C075F017C076F018C054
:1024840077F0120018C01AF01B6A1C6A17341A3647
:1024940001E31B801A50246E2450D8A409D0000EE6
:1024A400166E000E176E000E186E000E196E1200D6
:1024B400170E1A6E16C01BF017C01CF018C01DF0C2
:1024C4001A281E6E04D0D8901D321C321B321E2EC8
:1024D400FAD71B501F6E178EFF0E1616FF0E171617
:1024E400000E18161650206E1750216E1850226ECA
:1024F400236A8E0E245E24AE16D02450800A8F0FD9
:10250400D8B009D0000E166E000E176E000E186EAD
:10251400000E196E1200D89023322232213220325A
:10252400243EF9D715D0170E24640FD0000E166E72
:10253400000E176E000E186E000E196E1200D89061
:10254400203621362236233624062450D8A4F7D741
:102554001F50D8B408D0231E221E211E206C000E4A
:1025640021222222232220C016F021C017F022C0EB
:1025740018F023C019F0120039C016F03AC017F051
:102584003BC018F03CC019F0A00E1A6E0F0E1B6E63
:10259400000E1C6E000E1D6E74EC17F016C07BF05E
:1025A40017C07CF0500E00017B257B6FF70E7C2159
:1025B4007C6F7BC016F07CC017F0186A196A050E90
:1025C4001A6E030E1B6E000E1C6E000E1D6E74EC54
:1025D40017F0165000017A6F7AC016F0176A030ECE
:1025E400196E050E186E45EC1BF0161E171E164AC2
:1025F400172A00017B511624756F7C511720766FC2
:10260400050E7525256E000E7621266E25C016F062
:1026140026C017F0186A196A030E1A6E000E1B6E94
:10262400000E1C6E000E1D6E74EC17F016500001A7
:10263400776F09D07729786F7A29796F02D0782F4C
:10264400FED7792FFCD72306D8A0240623502410C4
:10265400D8B41200EFD7000E166E120E69EC18F003
:10266400000E446E000E436E44BE06D0445015E185
:10267400060E435CD8B011D0010E166ED8904334C8
:10268400D96E4434DA6E290ED926000EDA22DF50D0
:1026940069EC18F0434A442AE7D7000E0001766F2C
:1026A400010E756F800E776F250E786F000E796FAF
:1026B400000E7A6F000E7B6F000E7C6F67EC15F0D6
:1026C400000E00017E6F780E7D6FF10EF66E0C0E1B
:1026D400F76E0800F55018EC0FF0F20E166E0C0EA3
:1026E400176EF10EF66E0C0EF76E0800F55030EC16
:1026F40018F0F10EF66E0C0EF76E0800F5508DEC26
:1027040019F0D80E0001886F0E0E896FF10EF66E67
:102714000C0EF76E0800F550A5EC1AF0AF0E1D6E06
:10272400F10EF66E0C0EF76E0800F5508BEC1AF0F5
:102734001200070E0001D025166E176A000E17222C
:10274400000E196E080E186E32EC17F01650236E38
:1027540023500008080F246E000E256E27D0255044
:10276400020DDB0EF324D96E000EF420DA6EDECFF8
:1027740016F0DDCF17F02550216E226AD89021364D
:102784002236020E2126000E2222DB0E2124D96ECF
:10279400000E2220DA6EDECF18F0DDCF19F0000E25
:1027A4001B6E800E1A6EB5EC19F0252A2450255C98
:1027B400D8A0D5D724C025F0070E256401D018D0A1
:1027C4002550020DDB0EF324D96E000EF420DA6ED0
:1027D400DECF16F0DDCF17F0000E196E000E186E66
:1027E400000E1B6E800E1A6EEFEC1AF0252AE4D749
:1027F4002350080DF31EF41EF34AF42A0001C951B4
:10280400F324C96FCA51F420CA6F1200236E220E3A
:102814001D6E23508BEC1AF0000E1D6E23508BECB2
:102824001AF0070E1D6E23508BEC1AF0210E1D6E4C
:1028340023508BEC1AF0000E1D6E23508BEC1AF013
:102844007F0E1D6E23508BEC1AF02350ACEC1BF062
:1028540048C01BF0235090EC1BF0400E1B6E23501D
:1028640090EC1BF0000E216E070E216401D023D0E2
:10287400000E226E7F0E226401D01BD02150020D67
:10288400DB0EF324D96E000EF420DA6EDECF1FF0D7
:10289400DDCF20F02250010DF3501F24D96EF450E7
:1028A4002020DA6EDF501B6E235090EC1BF0222A9E
:1028B400E1D7212AD9D72350A1EC1BF01200000E36
:1028C400446E000E436E44BE06D0445050E1060EE2
:1028D400435CD8B012003D0E4324D96E000E442050
:1028E400DA6ED8904334E16E4434E26E290EE12668
:1028F400000EE222E75010EC16F001019F6FDE504B
:102904009F19D8B431D03D0E4324D96E000E442013
:10291400DA6EDF50D8A415D0120EC1EC1BF0D8909B
:102924004334D96E4434DA6EA00ED926010EDA226D
:10293400DECF9AF1DDCF9BF1D7EC1AF0010E05EC56
:102944001BF03D0E4324D96E000E4420DA6E3D0E7A
:102954004324E16E000E4420E26EE750D8A402D076
:10296400010E01D0000EDF6E434A442AACD7120098
:102974001950D8B405D0165017101810D8A40CD07C
:10298400000E166E000E176E000E186E1200192A35
:10299400D890183217321632000E16141B6E000E21
:1029A40017141C6EFE0E18141D6E1B501C101D10E7
:1029B400D8B40CD0ECD7192A010E1626000E172213
:1029C400000E1822D890183217321632000E161440
:1029D4001B6E000E17141C6EFF0E18141D6E1B5078
:1029E4001C101D10D8B406D0E6D71906D890163698
:1029F4001736183617BE03D0020E1960F6D719A081
:102A0400179ED8901932195018121A50D8A4188E3B
:102A140016C016F017C017F018C018F01200196E7F
:102A2400000E476E1904D8A44ED01950010DD30ED0
:102A3400F324D96E000EF420DA6E1950010DD50E70
:102A4400F324E16E000EF420E26EDE50E618D8B4F2
:102A54003AD09D9A1950800D000E166E060E176E10
:102A6400F3501626F45017221950010DD30EF324F7
:102A7400D96E000EF420DA6EDFCF18F0010EDF26D7
:102A84001850010DF3501624D96EF4501720DA6E45
:102A9400DF50476E1950010DD30EF324D96E000E8A
:102AA400F420DA6E800EDE18D8A40AD01950010D75
:102AB400D30EF324D96E000EF420DA6E010EDF6E0D
:102AC4009D8A47501200FF0E120039C016F03AC01A
:102AD40017F03BC018F03CC019F077C023F078C061
:102AE40024F0D89023362436D8902336243623C0B5
:102AF4001AF024C01BF01C6A1D6AB5EC17F0FF0E17
:102B04001624256EFF0E1720266E26500001D96F5D
:102B140025C0D8F075C0D7F0D705D8A414D0000EBE
:102B2400AB6E000EAC6E000EB86E948ED9C0B0FFC2
:102B3400D8C0AFFFAC84B886B88CAC8AAB88AB8EF7
:102B44009E9A9F8A9D8AD751010DD50EF324D96E82
:102B5400000EF420DA6E010EDF6ED751010DD30E94
:102B6400F324D96E000EF420DA6E010EDF6EF28EBD
:102B7400F28C12001C6E1C04D8A440D09380938263
:102B84003DD0185004E1810E175CD8A002D02F0E5E
:102B940001D02E0E1B6E1C04D8A404D01BC0C6FF8B
:102BA40017C0C8FF1C04D8A431D0280EC66E0AD0A2
:102BB400C78E0B0E05D0C79E1D0E02D0C78E770E92
:102BC400C86E24D017C019F018C01AF01A50000AA1
:102BD400D8B407D0010AD8B407D0020AD8B409D0AF
:102BE400EDD71950640AEAD71950900AD8B4E3D73C
:102BF400E5D71950E80AD8B4DBD7E0D71650000A55
:102C0400D8B4D0D7010AD8B4BCD7CCD71C04D8A424
:102C14001200000EC56E9E96A1961200166E36D056
:102C24001650010DDE0EF324F66E0C0EF420F76E32
:102C34000800F55080140009D8B402D0010E120027
:102C4400000E12001650010DDE0EF324F66E0C0E6B
:102C5400F420F76E0800F55081140009D8B402D0AE
:102C6400010E1200000E12001650010DDE0EF324A8
:102C7400F66E0C0EF420F76E0800F550821400096D
:102C8400D8B402D0010E1200000E12001650010D2D
:102C9400CB0EF324F66E0C0EF420F76E0800F550FC
:102CA400000AD8B4BDD7010AD8B4CCD7030AD8B423
:102CB400DBD7000E12000600FACF04F0FBCF05F0BC
:102CC400E9CF06F0EACF07F0E1CF08F0E2CF09F050
:102CD400D9CF0AF0DACF0BF0F3CF0CF0F4CF0DF02C
:102CE400F6CF0EF0F7CF0FF0F8CF10F0F5CF11F0CC
:102CF4004AC012F04BC013F04CC014F04DC015F094
:102D040064EC19F015C04DF014C04CF013C04BF036
:102D140012C04AF011C0F5FF10C0F8FF0FC0F7FF52
:102D24000EC0F6FF0DC0F4FF0CC0F3FF0BC0DAFFBA
:102D34000AC0D9FF09C0E2FF08C0E1FF07C0EAFFEB
:102D440006C0E9FF05C0FBFF04C0FAFF4A92110068
:102D540032D07BC075F07CC076F07DC077F07EC049
:102D640078F07DC016F07EC017F019EC1AF016C08A
:102D740079F017C07AF0EEEC16F000017551761177
:102D8400D8A405D07BC07BF07CC07CF01200010E7F
:102D94007B25166E000E7C21176E7DC0F6FF7EC06B
:102DA400F7FF0800F550186E196A56EC1AF016C0B1
:102DB4007BF017C07CF000017B517C11D8B407D0A4
:102DC4007BC0D9FF7CC0DAFFDF50D8A4C2D7000E85
:102DD4007B6F000E7C6F120035D075C0D9FF76C0B2
:102DE400DAFFDF50D8B40FD075C0D9FF76C0DAFF50
:102DF400DF501C6E77C0F6FF78C0F7FF0800F5506F
:102E04001C18D8B41AD077C0F6FF78C0F7FF0800B2
:102E1400F5501C6E1D6A1C1E1D1E1C4A1D2A75C001
:102E2400D9FF76C0DAFFDF501E6E1E501C2400014D
:102E3400756F000E1D20766F12000001754B762B06
:102E4400774B782B00017907D8A07A077929C5E157
:102E54007A29D8A4C2D7000E766F000E756F1200BF
:102E6400000E1B6E19AE06D0186C191ED8B0192AA4
:102E7400010E1B6E17AE06D0166C171ED8B0172A9B
:102E8400010E1B1A000E1D6E000E1C6E1850191038
:102E9400D8B41CD0010E1A6E04D0D8901836193646
:102EA4001A2A19AEFAD7D8901C361D361850165C5B
:102EB40019501758D8A005D01850165E1950175A33
:102EC4001C80D890193218321A2EEDD71B50D8B462
:102ED40004D01C6C1D1ED8B01D2A1CC016F01DC0C9
:102EE40017F01200000E1E6E000E1F6E000E206EF4
:102EF400000E216E1A501B101C101D10D8B42AD0BD
:102F0400010E226E06D0D8901A361B361C361D369A
:102F1400222A1DA6F8D7D8901E361F362036213611
:102F24001A50165C1B5017581C5018581D5019582D
:102F3400D8A009D01A50165E1B50175A1C50185AA4
:102F44001D50195A1E80D8901D321C321B321A3261
:102F5400222EE1D71EC016F01FC017F020C018F0B3
:102F640021C019F01200000E1E6E000E1F6E000E1E
:102F7400206E000E216E1A501B101C101D10D8B4A8
:102F84002AD0010E226E06D0D8901A361B361C3673
:102F94001D36222A1DAEF8D7D8901E361F3620368D
:102FA40021361A50165C1B5017581C5018581D50C7
:102FB4001958D8A009D01A50165E1B50175A1C5025
:102FC400185A1D50195A1E80D8901D321C321B32BB
:102FD4001A32222EE1D71EC016F01FC017F020C0EF
:102FE40018F021C019F0120088C07BF089C07CF071
:102FF4001D0E00017D6F0F0E7E6FAAEC16F000010E
:103004007B517C11D8B409D0F10EF66E0C0EF76E1C
:103014000800F5508DEC19F01200000E446E000EFD
:10302400436E44BE06D0445018E1080E435CD8B049
:103034001200435000018825D96E44508921DA6E6C
:10304400DF50756FF10EF66E0C0EF76E0800F5503A
:1030540036EC0BF0434A442AE4D7120016C0CDF0F4
:1030640017C0CEF0020E1624186E000E1720196E2B
:1030740018C0F6FF19C0F7FF0800F5CFCFF0030E14
:103084001624186E000E1720196E18C0F6FF19C00A
:10309400F7FF0800F5CFD0F0040E1624186E000ECA
:1030A4001720196E18C0F6FF19C0F7FF0800F5CFF6
:1030B400D1F0050E1624186E000E1720196E18C0D4
:1030C400F6FF19C0F7FF0800F5CFD2F012001C6E0E
:1030D4001C50010DDE0EF324F66E0C0EF420F76E78
:1030E4000800F5CF1DF01D500008176E1704196E67
:1030F4001C50010DCB0EF324F66E0C0EF420F76E6B
:103104000800F550176E186A920E17241A6E0F0EE7
:1031140018201B6E1650D8B407D01AC0D9FF1BC094
:10312400DAFF1D50DF1212001AC0D9FF1BC0DAFFEC
:103134001950DF1612001C6E1C50010DDE0EF32414
:10314400F66E0C0EF420F76E0800F5CF1DF01D503E
:103154000008176E1704196E1C50010DCB0EF324D2
:10316400F66E0C0EF420F76E0800F550176E186A10
:10317400890E17241A6E0F0E18201B6E1650D8B421
:1031840007D01AC0D9FF1BC0DAFF1D50DF1212008E
:103194001AC0D9FF1BC0DAFF1950DF1612001A50EB
:1031A4001B101C101D10D8B424D0010E1E6E06D0A6
:1031B400D8901A361B361C361D361E2A1DAEF8D77B
:1031C4001A50165C1B5017581C5018581D5019588B
:1031D400D8A008D01A50165E1B50175A1C50185A03
:1031E4001D50195AD8901D321C321B321A321E2E11
:1031F400E7D716C016F017C017F018C018F019C09A
:1032040019F012000001D451D619D8B422D0000EFE
:10321400446E000E436E44BE06D0445013E1080EC3
:10322400435CD8B00FD0010E11EC15F0266E8A0E57
:103234004324D96E000E4420DA6E26C0DFFF434AD1
:10324400442AE9D78A0E0001886F000E896FF6ECD4
:1032540017F0F10EF66E0C0EF76E0800F55008EC40
:1032640014F012008E0E226E07D00001D89078332D
:10327400773376337533222A000E000175151E6EDE
:10328400000E76151F6E000E7715206EFF0E781552
:10329400216E1E501F1020102110D8A4E6D775C02F
:1032A40016F076C017F077C018F022C019F0000E9F
:1032B4001A6EBAEC14F016C075F017C076F018C088
:1032C40077F012009EAA12009E9AAECF02F07F0EF3
:1032D4000001D619D8B402D0D62901D0010E036E4C
:1032E4000350D419D8B410D020EED6F0DFCF01F0BB
:1032F400010EDF260150010D800EF324D96E060E57
:10330400F420DA6E02C0DFFF800ED619D8A41200B2
:10331400010ED66F1200000E1E6E070E1E6401D041
:1033240018D01E50020DDB0EF324D96E000EF420CB
:10333400DA6EDECF16F0DDCF17F0000E196E000E38
:10334400186E000E1B6E800E1A6EEFEC1AF01E2A19
:10335400E4D7000E0001C86F000EC76F000ECA6FDD
:10336400000EC96F120018C01FF019C020F016C05B
:103374001DF017C01EF010D01FC0D9FF20C0DAFF07
:10338400DF501C6E1F4A202A1DC0D9FF1EC0DAFF61
:103394001CC0DFFF1D4A1E2A1A06D8A01B061A28C5
:1033A400EBE11B28D8B41200E7D718501910D8B491
:1033B40018D0010E1A6E04D0D890183619361A2A6D
:1033C40019AEFAD71850165C19501758D8A004D063
:1033D4001850165E1950175AD890193218321A2EEE
:1033E400F1D716C016F017C017F01200000185516E
:1033F40086118711D8B406D0000E851B000E861BDB
:10340400800E871B82C07CF083C07DF084C07EF078
:1034140085C07FF086C080F087C081F0F1EC0FF0AA
:103424007CC082F07DC083F07EC084F0120016C0A0
:103434001AF017C01BF002D01A4A1B2A1AC0F6FF52
:103444001BC0F7FF0800F5500009D8A4F5D716C033
:1034540018F017C019F0181E191E184A192A1A5004
:103464001824166E1B501920176E12001A6E1A04B7
:10347400D8A41200C5CF16F01F0E1616D8B402D069
:10348400010E01D0000E176E186AC7A403D0196A82
:10349400192A01D0196A19501712000E1812175060
:1034A4001810D8B41200E6D716C0D9FF17C0DAFF37
:1034B4001850DE18D8A405D016C016F017C017F09F
:1034C400120016C0D9FF17C0DAFF164A172ADF50B8
:1034D400D8A4EAD7000E166E000E176E1200D08E16
:1034E400D0B202D0D082D080D350030B0001BC6F85
:1034F400010EBC6502D0D3A4FED71BEC1BF0E8EC94
:103504001BF02DEC13F0E3EC1BF0FDD7FFD763EFBA
:1035140006F01E6E1E50ACEC1BF048C01BF01E5093
:1035240090EC1BF00009D8B40AD0000E1B6E1E509C
:1035340090EC1BF01DC01BF01E5090EC1BF01E50B5
:10354400A1EC1BF01200266E0DD088C0F6FF89C0D6
:10355400F7FF0800F5CF75F0265036EC0BF00001AC
:10356400884B892B88C0F6FF89C0F7FF0800F55007
:103574000009D8B41200E9D717501810D8B408D0ED
:1035840017C0D9FF18C0DAFFDE2A000EDD221200B0
:1035940001D812000500FA6E4550FD6E4650FE6ECD
:1035A400F850FF6EFA50195012009C0E01019C6FE6
:1035B400010E9D6F010E0001D76F960E0101946FED
:1035C400370E956F9AC196F19BC197F19C0E986F37
:1035D400010E996F31EC1BF0120016C01CF017C0DD
:1035E4001DF008D01CC0D9FF1DC0DAFF18C0DFFFD2
:1035F4001C4A1D2A1A06D8A01B061A28F3E11B2808
:10360400D8B41200EFD7166E1650010DD50EF32460
:10361400D96E000EF420DA6E010EDF6E1650010D25
:10362400D30EF324D96E000EF420DA6E010EDF6E91
:103634001200000E896E000E8A6E400E8B6E000E14
:10364400926E000E936E949094929494949C949E93
:10365400000E806E000E816E000E826E120094C108
:1036640045F095C146F0000E0101806F000E816F98
:1036740096C182F197C183F198C184F199C185F112
:1036840092EC07F0120016501802F3CF1AF0F4CFA0
:103694001BF016501902F3501B2617501802F35052
:1036A4001B261AC016F01BC017F012001650180281
:1036B400F3CF1AF0F4CF1BF016501902F3501B2667
:1036C40017501802F3501B261AC016F01BC017F02F
:1036D4001200000179517A117B11D8B406D0000E82
:1036E400791B000E7A1B800E7B1B79C079F07AC09F
:1036F4007AF07BC07BF012001E6E1E50166E176AA5
:10370400186A8E0E196E000E1A6EBAEC14F016C0FA
:1037140075F017C076F018C077F012001C6E1C50BC
:1037240038EC1AF01C04D8A408D01BC0C9FFC5BCCF
:1037340002D0010E1200000E1200000E12001B6EC9
:103744001B5038EC1AF01B04D8A41200C584C5A47D
:103754001200FDD71B6E1B5038EC1AF01B04D8A4C2
:103764001200C580C5A01200FDD70A00070006009C
:103774000F000E000D0001000000006CDC021E6E44
:103784004950010A496E49C016F01E509DEC18F0CC
:103794001200166E0001D705D8A41200ACA2FED701
:1037A40016C0ADFF12000001800200028003000376
:1037B400800400040105FF0E040F090F0E0F130F00
:1037C400180F61EC14F004EC19F012000F0EC16E26
:0637D400070EB46E1200A6
:00000001FF
