:040C000063EF06F0A8
:060C08004A82BFED16F068
:100C18004A80D8CF60F0E8CF61F0E0CF62F0FACF39
:100C280063F0FBCF64F0E9CF65F0EACF66F0E1CF7F
:100C380067F0E2CF68F0D9CF69F0DACF6AF0F3CF86
:100C48006BF0F4CF6CF0F6CF6DF0F7CF6EF0F8CF15
:100C58006FF0F5CF70F04AC071F04BC072F04CC025
:100C680073F04DC074F074C04DF073C04CF072C096
:100C78004BF071C04AF070C0F5FF6FC0F8FF6EC04E
:100C8800F7FF6DC0F6FF6CC0F4FF6BC0F3FF6AC0DE
:100C9800DAFF69C0D9FF68C0E2FF67C0E1FF66C03C
:100CA800EAFF65C0E9FF64C0FBFF63C0FAFF62C0EA
:100CB800E0FF61C0E8FF60C0D8FF4A9010004EEF27
:100CC80011F0000101010101010101020202020209
:100CD800000000000000010204081020408040804D
:100CE8000102040102040820100100000507206029
:100CF800000000000000004F00000007000700147B
:100D08007F147F14242A7F2A122313086462364929
:100D18005522500005030000001C2241000041221A
:100D28001C0014083E081408083E0808005030004B
:100D38000008080808080060600000201008040285
:100D48003E5149453E00427F40004261514946219B
:100D580041454B311814127F1027454545393C4A07
:100D68004949300171090503364949493606494957
:100D7800291E3636000000563600000008142241AD
:100D88000014141414140041221408020151090615
:100D9800304979413E7E1111117E7F494949363EDD
:100DA800414141227F4141221C7F494949417F09F4
:100DB8000909013E4149497A7F0808087F00417FB7
:100DC80041002040413F017F081422417F404040BC
:100DD800407F020C027F7F0408107F3E4141413E64
:100DE8007F090909063E4151215E7F0919294646B6
:100DF8004949493101017F01013F4040403F1F20DF
:100E080040201F3F4030403F6314081463070870B8
:100E180008076151494543007F4141000204081019
:100E2800200041417F00040201020440404040404C
:100E3800000102040020545454787F504848303848
:100E480044444420384444487F3854545418087E55
:100E58000901020C5252523E7F0804047800447D76
:100E680040002040443D007F1028440000417F405E
:100E78000078045844787C0804047838444444389A
:100E88007C14141408081414187C7C0804040848FA
:100E980054545420043F4440203C4040207C1C20B3
:100EA80040201C3C4030403C44281028440C505002
:100EB800503C4464544C44000836410000007F0014
:100EC8000000413608000C020C100C000000000065
:100ED8004445564943453A2048432D30360D0A0DBE
:100EE8000A50415353574F52443A20313233340059
:100EF800286E756C6C29002430302400243031248D
:100F080000243032240024303324002430342400D8
:100F18002430352400246463240024636C240000F6
:100F2800000E01018B6F020E8A6F000E8C6F91D339
:100F3800000E8D6F000E8E6F000E8F6F000E906F7B
:100F4800000E936F82C1F6FF83C1F7FF0800F550CA
:100F5800250AD8A46DD3000E926F92C191F1824BED
:100F6800832B82C1F6FF83C1F7FF0800F550000903
:100F7800D8B478D382C1F6FF83C1F7FF0800F550D3
:100F8800250AD8B455D382C1F6FF83C1F7FF0800FC
:100F9800F5502D0AD8A404D0824B832B010E926FF2
:100FA80082C1F6FF83C1F7FF0800F550300AD8A4C4
:100FB80012D0824B832B92830ED00A0E9103F350EA
:100FC800916F82C1F6FF83C1F7FF0800F550D00F7B
:100FD8009127824B832B82C1F6FF83C1F7FF2F0E27
:100FE8000800F56408D082C1F6FF83C1F7FF390E07
:100FF8000800F564E2D782C1F6FF83C1F7FF080055
:10100800F5502E0AD8A423D0824B832B000E8A6F6A
:101018000ED00A0E8A03F3508A6F82C1F6FF83C18D
:10102800F7FF0800F550D00F8A27824B832B82C127
:10103800F6FF83C1F7FF2F0E0800F56408D082C1C0
:10104800F6FF83C1F7FF390E0800F564E2D782C1C5
:10105800F6FF83C1F7FF0800F550660AD8A425D02B
:1010680080C188F081C189F084C1D9FF85C1DAFFC8
:10107800DFCFB8F0030EDE26DFCFB9F0000EDD2299
:10108800B8C0D9FFB9C0DAFFDECF8AF0DECF8BF067
:10109800DDCF8CF091C18DF092C18EF08CC18FF0B4
:1010A8008AC190F0EDEC0CF0C0D282C1F6FF83C18A
:1010B800F7FF0800F550730AD8A436D084C1D9FFC9
:1010C80085C1DAFFDFCFB8F0020EDE26DFCFB9F038
:1010D800000EDD22B8C0D9FFB9C0DAFFDECF88F133
:1010E800DDCF89F188518911D8B40FD080C11AF0A9
:1010F80081C11BF088C11CF089C11DF091C11EF08F
:1011080092C11FF0CAEC10F090D280C11AF081C1D0
:101118001BF0F80E1C6E0E0E1D6E91C11EF092C1D2
:101128001FF0CAEC10F081D282C1F6FF83C1F7FF2D
:101138000800F5506C0AD8A404D0824B832B010E0A
:10114800936F82C1F6FF83C1F7FF0800F550750A57
:10115800D8A454D09351D8A41BD084C1D9FF85C139
:10116800DAFFDFCFB8F0020EDE26DFCFB9F0000ECF
:10117800DD22B8C0D9FFB9C0DAFFDECFBAF0DDCFC3
:10118800BBF0BAC08DF1BBC08EF18F6B906B18D0DD
:1011980084C1D9FF85C1DAFFDFCFB8F0040EDE269F
:1011A800DFCFB9F0000EDD22B8C0D9FFB9C0DAFF31
:1011B800DECF8DF1DECF8EF1DECF8FF1DECF90F175
:1011C80080C175F081C176F08DC177F08EC178F05D
:1011D8008FC179F090C17AF093C17BF00A0E0001BB
:1011E8007C6F000E7D6F91C17EF092C17FF08CC143
:1011F80080F0610E816F23EC0EF017D282C1F6FFEA
:1012080083C1F7FF0800F550640AD8B409D082C139
:10121800F6FF83C1F7FF0800F550690AD8A454D037
:101228009351D8A41BD084C1D9FF85C1DAFFDFCF81
:10123800B8F0020EDE26DFCFB9F0000EDD22B8C00E
:10124800D9FFB9C0DAFFDECFBAF0DDCFBBF0BAC044
:101258008DF1BBC08EF18F6B906B18D084C1D9FF14
:1012680085C1DAFFDFCFB8F0040EDE26DFCFB9F094
:10127800000EDD22B8C0D9FFB9C0DAFFDECF8DF18C
:10128800DECF8EF1DECF8FF1DECF90F180C175F029
:1012980081C176F08DC177F08EC178F08FC179F079
:1012A80090C17AF093C17BF00A0E00017C6F010EA9
:1012B8007D6F91C17EF092C17FF08CC180F0610E8C
:1012C800816F23EC0EF0B1D182C1F6FF83C1F7FF25
:1012D8000800F550780AD8B409D082C1F6FF83C156
:1012E800F7FF0800F550700AD8A454D09351D8A439
:1012F8001BD084C1D9FF85C1DAFFDFCFB8F0020E59
:10130800DE26DFCFB9F0000EDD22B8C0D9FFB9C0A4
:10131800DAFFDECFBAF0DDCFBBF0BAC08DF1BBC0CB
:101328008EF18F6B906B18D084C1D9FF85C1DAFF1D
:10133800DFCFB8F0040EDE26DFCFB9F0000EDD22D5
:10134800B8C0D9FFB9C0DAFFDECF8DF1DECF8EF19C
:10135800DECF8FF1DECF90F180C175F081C176F0DC
:101368008DC177F08EC178F08FC179F090C17AF095
:1013780093C17BF0100E00017C6F000E7D6F91C150
:101388007EF092C17FF08CC180F0610E816F23ECFA
:101398000EF04BD182C1F6FF83C1F7FF0800F5506C
:1013A800580AD8B409D082C1F6FF83C1F7FF0800F4
:1013B800F550500AD8A454D09351D8A41BD084C156
:1013C800D9FF85C1DAFFDFCFB8F0020EDE26DFCF06
:1013D800B9F0000EDD22B8C0D9FFB9C0DAFFDECF00
:1013E800BAF0DDCFBBF0BAC08DF1BBC08EF18F6B08
:1013F800906B18D084C1D9FF85C1DAFFDFCFB8F070
:10140800040EDE26DFCFB9F0000EDD22B8C0D9FF0A
:10141800B9C0DAFFDECF8DF1DECF8EF1DECF8FF1EE
:10142800DECF90F180C175F081C176F08DC177F083
:101438008EC178F08FC179F090C17AF093C17BF0BA
:10144800100E00017C6F000E7D6F91C17EF092C17D
:101458007FF08CC180F0410E816F23EC0EF0E5D057
:1014680082C1F6FF83C1F7FF0800F550620AD8A4CD
:1014780054D09351D8A41BD084C1D9FF85C1DAFFB9
:10148800DFCFB8F0020EDE26DFCFB9F0000EDD2286
:10149800B8C0D9FFB9C0DAFFDECFBAF0DDCFBBF0F4
:1014A800BAC08DF1BBC08EF18F6B906B18D084C120
:1014B800D9FF85C1DAFFDFCFB8F0040EDE26DFCF13
:1014C800B9F0000EDD22B8C0D9FFB9C0DAFFDECF0F
:1014D8008DF1DECF8EF1DECF8FF1DECF90F180C1BE
:1014E80075F081C176F08DC177F08EC178F08FC12B
:1014F80079F090C17AF093C17BF0020E00017C6F05
:10150800000E7D6F91C17EF092C17FF08CC180F09A
:10151800610E816F23EC0EF088D082C1F6FF83C183
:10152800F7FF0800F5506F0AD8A454D09351D8A4F7
:101538001BD084C1D9FF85C1DAFFDFCFB8F0020E16
:10154800DE26DFCFB9F0000EDD22B8C0D9FFB9C062
:10155800DAFFDECFBAF0DDCFBBF0BAC08DF1BBC089
:101568008EF18F6B906B18D084C1D9FF85C1DAFFDB
:10157800DFCFB8F0040EDE26DFCFB9F0000EDD2293
:10158800B8C0D9FFB9C0DAFFDECF8DF1DECF8EF15A
:10159800DECF8FF1DECF90F180C175F081C176F09A
:1015A8008DC177F08EC178F08FC179F090C17AF053
:1015B80093C17BF0080E00017C6F000E7D6F91C116
:1015C8007EF092C17FF08CC180F0610E816F23ECB8
:1015D8000EF02BD082C1F6FF83C1F7FF0800F5504B
:1015E800630AD8A434D084C1D9FF85C1DAFFDFCF1C
:1015F800B8F0020EDE26DFCFB9F0000EDD22B8C04B
:10160800D9FFB9C0DAFFDF50866F000E876F80C13F
:101618001AF081C11BF0860E1C6E010E1D6E91C161
:101628001EF092C11FF0CAEC10F001018B270FD0F9
:1016380080C117F081C118F082C1F6FF83C1F7FF9E
:101648000800F5CF19F0E6EC1AF001018B2B824B5C
:10165800832B82C1F6FF83C1F7FF0800F55000090C
:10166800D8A466D48B51120000017B6F000E0001D4
:10167800866F070ED025166E176A000E1722000E09
:10168800196E080E186E94EC17F016500001856F4D
:10169800000E826F000E816FCF51C725766F000E46
:1016A800C821776FC151786F796B7651785D775122
:1016B8007959D8B00CD0000EC86F000EC76F85518D
:1016C800080DC951F324C96FCA51F420CA6FD0510B
:1016D800C925766F000ECA21776FC251786F796B72
:1016E8007651785D77517959D8B067D17B519DECA7
:1016F80013F063D100018551080DC951F324C96F56
:10170800CA51F420CA6F1200000EC86F000EC76FCE
:101718001200CF51040DF3CF7EF07E51C725166E0F
:10172800000EC821176E7EC018F0196AFFEC19F078
:1017380016500001C7271750C8231200D151755DF4
:10174800D8A014D0D251D1C076F0776B7627000E8E
:1017580077237551786F796B7651785D7951800A66
:101768007A6F7751800A7A59D8A002D0200E756F07
:10177800D15100087525756F20EECDF0DECFF6FF4C
:10178800DDCFF7FF0800F5500009D8A423D0010EDB
:10179800CD25766F000ECE21776F76C0F6FF77C025
:1017A800F7FF0800F5500009D8A414D0CFC086F080
:1017B80075518503F3CF16F0F4CF17F086C018F0F3
:1017C800196A80EC1BF0060E16240001816F000ECA
:1017D800172050D07551766F776B060E7627000E5E
:1017E800772320EECDF0DECF78F0DDCF79F076519B
:1017F80078277751792378C0F6FF79C0F7FF08007A
:10180800F5CF86F0000E876F1BD08751766F776B08
:10181800060E7627000E772320EECDF0DECF78F087
:10182800DDCF79F0765178277751792378C0F6FFA4
:1018380079C0F7FF0800F5508127000E8223872B17
:101848007551875DD8A0E1D785C016F0176A81C0A9
:1018580018F082C019F080EC1BF00001D251766FAD
:10186800776B1650762717507723060E7625816FEB
:10187800000E7721826FC7C083F0C9C080F0000EC8
:10188800876F89D087518603F3CF7CF0000E846F71
:1018980058D084517CC076F0776B7627000E77237A
:1018A800815176278251772320EECDF0DECF78F074
:1018B800DDCF79F0765178277751792378C0F6FF14
:1018C80079C0F7FF0800F5CF7DF0080ED06514D079
:1018D8008739E842F80B080F7F6F7F51D05DD8B089
:1018E8000BD0D05100087F25766F7629776F02D00C
:1018F800D8907D33772FFCD70001845183C076F0D0
:10190800776B7627000E772380C078F0D8907833ED
:10191800D8907833D89078337851020DDB0EF324C1
:10192800D96E000EF420DA6EDECF79F0DDCF7AF0D2
:1019380076517925D96E77517A21DA6E7DC0DFFF2D
:10194800842B8651845DD8A0A4D7865183C076F0B5
:10195800776B7627000E772380C078F0D89078339D
:10196800D8907833D89078337851020DDB0EF32471
:10197800D96E000EF420DA6EDECF79F0DDCF7AF082
:1019880076517925D96E77517A21DA6E000EDF6E9D
:10199800080E8027872B8551875DD8A073D786517D
:1019A80083C076F0776B7627000E7723010E7625B5
:1019B800C76F000E7721C86F120000017551090A20
:1019C800D8B4A7D6030AD8B495D6070AD8B49CD6F3
:1019D800B5D69D0E0001B66F000EB76F910EAC6FB5
:1019E800000EAD6F000EA96F000EAA6F0B0EAE6F42
:1019F8008CAF27D08D51D8A48EA30CD088C017F0F7
:101A080089C018F02D0E196EE6EC1AF00001A92B0A
:101A18008D0709D0B6C0D9FFB7C0DAFF2D0EDF6E2B
:101A2800B64BB72BAE078AC079F08BC07AF08CC062
:101A38007BF093EC1BF079C08AF07AC08BF07BC006
:101A48008CF08AC016F08BC017F08CC018F046ECEA
:101A580012F016C0B2F017C0B3F018C0B4F019C035
:101A6800B5F0B2C075F0B3C076F0B4C077F0B5C0C9
:101A780078F05CEC19F075C079F076C07AF077C030
:101A88007BF093EC1BF079C07CF07AC07DF07BC0D2
:101A98007EF08AC07FF08BC080F08CC081F0F3ECC0
:101AA8000FF07CC0AFF07DC0B0F07EC0B1F039D08F
:101AB800B2C016F0B3C017F0B4C018F0B5C019F032
:101AC8000A0E1A6E000E1B6E000E1C6E000E1D6EA6
:101AD800F9EC18F01650300FACC0D9FFADC0DAFFE2
:101AE800DF6E0001AC4BAD2BB2C016F0B3C017F0DF
:101AF800B4C018F0B5C019F00A0E1A6E000E1B6EAD
:101B0800000E1C6E000E1D6E17EC18F016C0B2F019
:101B180017C0B3F018C0B4F019C0B5F00001AA2B73
:101B2800AE070001B251B311B411B511D8B410D039
:101B3800BFD7AC07D8A0AD07ACC0D9FFADC0DAFF9E
:101B4800B6C0E1FFB7C0E2FFDFCFE7FFB64BB72B68
:101B5800AA07AA29D8A4EDD7060E906502D0060ECA
:101B6800906F9051AE5DD8A0AEC090F09051D8B4AF
:101B78004DD0B6C0D9FFB7C0DAFF2E0EDF6EB64B18
:101B8800B72B3FD0AFC075F0B0C076F0B1C077F0DA
:101B9800000E786F200E796F410E7A6FCBEC11F042
:101BA80075C0AFF076C0B0F077C0B1F0AFC016F036
:101BB800B0C017F0B1C018F046EC12F01650000192
:101BC800AB6FAB51300FB6C0D9FFB7C0DAFFDF6ECD
:101BD800B64BB72BAFC082F0B0C083F0B1C084F071
:101BE800AB51A6EC1BF075C085F076C086F077C0C7
:101BF80087F020EC1AF082C0AFF083C0B0F084C048
:101C0800B1F0000190079029D8A4BCD7B6C0D9FF7D
:101C1800B7C0DAFF000EDF6EB64BB72B88C01AF0DC
:101C280089C01BF09D0E1C6E000E1D6E8DC01EF02F
:101C38008EC01FF0CAEC10F00001A9251200000E9A
:101C480000018F6F000E8E6F77C094F078C095F00A
:101C580079C096F07AC097F07751781179117A1196
:101C6800D8A413D0300E826F000E836F75C01AF09F
:101C780076C01BF0820E1C6E000E1D6E7EC01EF01C
:101C88007FC01FF0CAEC10F0120000017D51D8B4DB
:101C98003AD00A0E7C19D8A436D07B51D8A47AAF92
:101CA8001BD0010E8F6F77C025F078C026F079C061
:101CB80027F07AC028F0251E261E271E281E252A52
:101CC800000E26222722282225C094F026C095F04F
:101CD80027C096F028C097F07B51D8B478AF13D0BE
:101CE800010E8F6F77C025F078C026F0251E261EBE
:101CF800254A262A25C094F026C095F0000E95BFE7
:101D0800FF0E966F976F8D0E986F000E996F98C0A3
:101D1800D9FF99C0DAFF000EDF6E54D094C016F0D8
:101D280095C017F096C018F097C019F07C511A6E3C
:101D38001B6A1C6A1D6AF9EC18F016C090F017C0EF
:101D480091F018C092F019C093F0000193519211CC
:101D5800911104E10A0E905DD8A013D0C60E256E2D
:101D6800FF0E266E8151276E286A25502726265099
:101D780028222750902728509123000E9223000EE6
:101D880093239051300F9807D8A0990798C0D9FF8E
:101D980099C0DAFFDF6E94C016F095C017F096C0B0
:101DA80018F097C019F07C511A6E1B6A1C6A1D6ADC
:101DB80017EC18F016C094F017C095F018C096F0FC
:101DC80019C097F000019451951196119711D8A454
:101DD800A5D78F51D8B419D07E51D8A47FA30CD0E1
:101DE80075C017F076C018F02D0E196EE6EC1AF0D3
:101DF80000018E2B7E0709D09807D8A0990798C0B4
:101E0800D9FF99C0DAFF2D0EDF6E75C01AF076C0C3
:101E18001BF098C01CF099C01DF07EC01EF07FC05A
:101E28001FF0CAEC10F000018E2512000001876F28
:101E380087C0DAF07D0E00017F6F000E806F7FC0D3
:101E4800D9FF80C0DAFFDF50486E020E7F27000EF0
:101E58008023000E166E010E186E900E176E8751B5
:101E68001EEC16F0000E0001C86F000EC76F000EC2
:101E7800CA6F000EC96F000EBD6F000EBE6F7F0ED9
:101E8800BF6F3F0EC06F800EC16F400EC26FAE0EA7
:101E98001D6E8751B3EC1AF0D50E1D6E00018751E7
:101EA800B3EC1AF0800E1D6E00018751B3EC1AF0E6
:101EB800A80E1D6E00018751B3EC1AF03F0E1D6E7F
:101EC80000018751B3EC1AF0D30E1D6E0001875143
:101ED800B3EC1AF0000E1D6E00018751B3EC1AF036
:101EE800400E1D6E00018751B3EC1AF08D0E1D6E69
:101EF80000018751B3EC1AF0000E0001826F140E36
:101F0800816F81C01DF08751B3EC1AF0200E1D6E51
:101F180000018751B3EC1AF0000E1D6E00018751C5
:101F2800B3EC1AF0000E0001846FA10E836F83C01A
:101F38001DF08751B3EC1AF0DA0E1D6E00018751BF
:101F4800B3EC1AF0120E1D6E00018751B3EC1AF0B3
:101F5800000E0001866FC80E856F85C01DF0875181
:101F6800B3EC1AF0810E1D6E00018751B3EC1AF024
:101F7800CF0E1D6E00018751B3EC1AF0D90E1D6EFD
:101F880000018751B3EC1AF01F0E1D6E0001875136
:101F9800B3EC1AF0DB0E1D6E00018751B3EC1AF09A
:101FA800100E1D6E00018751B3EC1AF0A40E1D6EC1
:101FB80000018751B3EC1AF0A60E1D6E000187517F
:101FC800B3EC1AF0AF0E1D6E00018751B3EC1AF096
:101FD800000E246E960E236EC0EC12F012007EC026
:101FE80023F0246A256A00017D35233601E3248025
:101FF8002350286E81C023F0246A256A8035233651
:1020080001E324802350276E2850D8B40BD02750E2
:10201800285CD8B00ED0285000082724236E180E4C
:10202800236407D07FC07CF080C07DF081C07EF043
:1020380012002750D8B40BD02850275CD8B00ED047
:10204800275000082824236E180E236407D07CC06C
:102058007CF07DC07DF07EC07EF01200060E266EFC
:102068007EBF268E81BF268C7D8FFF0E7C17FF0ECC
:102078007D17000E7E17808FFF0E7F17FF0E8017CB
:10208800000E81172750285CD8B01BD0D8907F3716
:1020980080378137270628502718D8B40DD0260650
:1020A80026C023F0070E2316D8B406D0EFD7D89051
:1020B8007E337D337C33282A27502818D8B41FD084
:1020C800F6D72850275CD8B01AD0D8907C377D37FF
:1020D8007E37280628502718D8B40DD0260626C0E3
:1020E80023F0070E2316D8B406D0EFD7D890813343
:1020F80080337F33272A27502818D8A4F7D726AE4D
:102108000CD0FF0E7C1BFF0E7D1BFF0E7E1B010EED
:102118007C27000E7D23000E7E2326AC0CD0FF0EFC
:102128007F1BFF0E801BFF0E811B010E7F27000EF9
:102138008023000E8123000E266E7C517F277D515F
:1021480080237E51812381AF0ED0FF0E7F1BFF0EAF
:10215800801BFF0E811B010E7F27000E8023000EBF
:102168008123010E266E7FC016F080C017F081C053
:1021780018F028C019F026C01AF01CEC15F016C08B
:102188007CF017C07DF018C07EF01200000E226EA1
:10219800200E236E000E246E1CC020F01DC021F0FE
:1021A80003D0242A204A212A20C0F6FF21C0F7FFA5
:1021B800F86A070EF76403D00800F55005D0F6CF8B
:1021C800E9FFF7CFEAFFEF500009D8A4EAD71E507D
:1021D800D8B40FD01E50245CD8A005D01EC024F05F
:1021E800000E1E6E02D024501E5E1FA202D0300EBA
:1021F800236E1FB028D01E50D8B425D01AC017F0AF
:102208001BC018F023C019F0E6EC1AF0222A1E06AB
:10221800F2D71AC017F01BC018F01CC0F6FF1DC07B
:10222800F7FFF86A070EF76403D00800F55005D0E9
:10223800F6CFE9FFF7CFEAFFEF50196EE6EC1AF098
:10224800222A1C4A1D2A1CC0F6FF1DC0F7FFF86A87
:10225800070EF76403D00800F55005D0F6CFE9FF64
:10226800F7CFEAFFEF500009D8B404D02406242899
:10227800D8A4CFD71E50D8B40BD01AC017F01BC0A3
:1022880018F023C019F0E6EC1AF0222A1E06F2D73D
:10229800225012000A0EF66E380EF76E000EF86E17
:1022A80001EEA0F010EE0CF00900F5CFEEFFE550BE
:1022B800E150FAE1FA0EF66E370EF76E000EF86E80
:1022C80000EEDBF010EE10F00900F5CFEEFFE55060
:1022D800E150FAE1BE0EF66E370EF76E000EF86E9C
:1022E80000EE29F010EE14F00900F5CFEEFFE550EE
:1022F800E150FAE106EE00F011EE00F0EE6AE5506A
:10230800E150FCE1E250FAE105EE01F07F0EEE6AE1
:10231800E806FDE104EE00F011EE00F0EE6AE5508B
:10232800E150FCE1E250FAE103EE00F011EE00F0BA
:10233800EE6AE550E150FCE1E250FAE102EE00F00D
:1023480011EE00F0EE6AE550E150FCE1E250FAE1EE
:1023580001EE00F0800EEE6AE806FDE100EEBDF049
:102368001E0EEE6AE806FDE100EE3DF00D0EEE6A87
:10237800E806FDE105EE00F0010EEE6AE806FDE173
:102388004A904A92000EF86E000199EF1AF077C051
:102398001EF01F6A206A000176351E3601E31F8091
:1023A8001E50216E2150D8A407D0000E756F000E64
:1023B800766F000E776F12007AC01EF01F6A206ACF
:1023C80079351E3601E31F801E50266E2650D8A48C
:1023D80007D0000E756F000E766F000E776F120033
:1023E80026507B0F212677C026F07A51261A800EB8
:1023F8002616768F798FFF0E7817FF0E7917000E45
:102408007A17000E226E000E236E000E246E070E41
:10241800256E75A106D078512226795123227A514A
:102428002422D890773376337533D8907837793734
:102438007A37252EEED7090E256E75A106D078516C
:102448002226795123227A512422D8907733763361
:102458007533D890243223322232252EEED722C06B
:1024680016F023C017F024C018F021C019F026C0B8
:102478001AF01CEC15F016C075F017C076F018C0ED
:1024880077F0120018C01AF01B6A1C6A17341A3643
:1024980001E31B801A50246E2450D8A409D0000EE2
:1024A800166E000E176E000E186E000E196E1200D2
:1024B800170E1A6E16C01BF017C01CF018C01DF0BE
:1024C8001A281E6E04D0D8901D321C321B321E2EC4
:1024D800FAD71B501F6E178EFF0E1616FF0E171613
:1024E800000E18161650206E1750216E1850226EC6
:1024F800236A8E0E245E24AE16D02450800A8F0FD5
:10250800D8B009D0000E166E000E176E000E186EA9
:10251800000E196E1200D890233222322132203256
:10252800243EF9D715D0170E24640FD0000E166E6E
:10253800000E176E000E186E000E196E1200D8905D
:10254800203621362236233624062450D8A4F7D73D
:102558001F50D8B408D0231E221E211E206C000E46
:1025680021222222232220C016F021C017F022C0E7
:1025780018F023C019F0120039C016F03AC017F04D
:102588003BC018F03CC019F0A00E1A6E0F0E1B6E5F
:10259800000E1C6E000E1D6ED6EC17F016C07BF0F8
:1025A80017C07CF0500E00017B257B6FF70E7C2155
:1025B8007C6F7BC016F07CC017F0186A196A050E8C
:1025C8001A6E030E1B6E000E1C6E000E1D6ED6ECEE
:1025D80017F0165000017A6F7AC016F0176A030ECA
:1025E800196E050E186E6DEC1BF0161E171E164A96
:1025F800172A00017B511624756F7C511720766FBE
:10260800050E7525256E000E7621266E25C016F05E
:1026180026C017F0186A196A030E1A6E000E1B6E90
:10262800000E1C6E000E1D6ED6EC17F01650000141
:10263800776F09D07729786F7A29796F02D0782F48
:10264800FED7792FFCD72306D8A0240623502410C0
:10265800D8B41200EFD7000E166E120E91EC18F0D7
:10266800000E446E000E436E44BE06D0445015E181
:10267800060E435CD8B011D0010E166ED8904334C4
:10268800D96E4434DA6E290ED926000EDA22DF50CC
:1026980091EC18F0434A442AE7D7000E0001766F00
:1026A800010E756F800E776F250E786F000E796FAB
:1026B800000E7A6F000E7B6F000E7C6FC9EC15F070
:1026C800000E00017E6F780E7D6FF10EF66E0C0E17
:1026D800F76E0800F5501AEC0FF0F20E166E0C0E9D
:1026E800176EF10EF66E0C0EF76E0800F55058ECEA
:1026F80018F0F10EF66E0C0EF76E0800F550B5ECFA
:1027080019F0D80E0001886F0E0E896FF10EF66E63
:102718000C0EF76E0800F550CDEC1AF0AF0E1D6EDA
:10272800F10EF66E0C0EF76E0800F550B3EC1AF0C9
:102738001200070E0001D025166E176A000E172228
:10274800000E196E080E186E94EC17F01650236ED2
:1027580023500008080F246E000E256E27D0255040
:10276800020DDB0EF324D96E000EF420DA6EDECFF4
:1027780016F0DDCF17F02550216E226AD890213649
:102788002236020E2126000E2222DB0E2124D96ECB
:10279800000E2220DA6EDECF18F0DDCF19F0000E21
:1027A8001B6E800E1A6EDDEC19F0252A2450255C6C
:1027B800D8A0D5D724C025F0070E256401D018D09D
:1027C8002550020DDB0EF324D96E000EF420DA6ECC
:1027D800DECF16F0DDCF17F0000E196E000E186E62
:1027E800000E1B6E800E1A6E17EC1BF0252AE4D71C
:1027F8002350080DF31EF41EF34AF42A0001C951B0
:10280800F324C96FCA51F420CA6F12008AC07BF042
:102818008BC07CF0220E00017D6F0F0E7E6F0CECDA
:1028280017F000017B517C11D8B409D0F10EF66E77
:102838000C0EF76E0800F550B5EC19F012008AC0BE
:102848007BF08BC07CF01D0E00017D6F0F0E7E6F3C
:102858000CEC17F000017B517C11D8B416D0F10EA6
:10286800F66E0C0EF76E0800F550B5EC19F0D80EA0
:102878000001886F0E0E896FF10EF66E0C0EF76E62
:102888000800F550CDEC1AF01200000E446E000E50
:10289800436E44BE06D0445018E1080E435CD8B0DD
:1028A8001200435000018A25D96E44508B21DA6EFC
:1028B800DF50756FF10EF66E0C0EF76E0800F550CE
:1028C80038EC0BF0434A442AE4D71200236E220E58
:1028D8001D6E2350B3EC1AF0000E1D6E2350B3EC9E
:1028E8001AF0070E1D6E2350B3EC1AF0210E1D6E60
:1028F8002350B3EC1AF0000E1D6E2350B3EC1AF0FF
:102908007F0E1D6E2350B3EC1AF02350D4EC1BF04D
:1029180048C01BF02350B8EC1BF0400E1B6E235030
:10292800B8EC1BF0000E216E070E216401D023D0F5
:10293800000E226E7F0E226401D01BD02150020DA2
:10294800DB0EF324D96E000EF420DA6EDECF1FF012
:10295800DDCF20F02250010DF3501F24D96EF45022
:102968002020DA6EDF501B6E2350B8EC1BF0222AB1
:10297800E1D7212AD9D72350C9EC1BF01200000E49
:10298800446E000E436E44BE06D0445050E1060E1D
:10299800435CD8B012003D0E4324D96E000E44208B
:1029A800DA6ED8904334E16E4434E26E290EE126A3
:1029B800000EE222E75072EC16F001019F6FDE5024
:1029C8009F19D8B431D03D0E4324D96E000E44204F
:1029D800DA6EDF50D8A415D0120EE9EC1BF0D890AF
:1029E8004334D96E4434DA6EA00ED926010EDA22A9
:1029F800DECF9AF1DDCF9BF1FFEC1AF0010E2DEC42
:102A08001BF03D0E4324D96E000E4420DA6E3D0EB5
:102A18004324E16E000E4420E26EE750D8A402D0B1
:102A2800010E01D0000EDF6E434A442AACD71200D3
:102A38001950D8B405D0165017101810D8A40CD0B7
:102A4800000E166E000E176E000E186E1200192A70
:102A5800D890183217321632000E16141B6E000E5C
:102A680017141C6EFE0E18141D6E1B501C101D1022
:102A7800D8B40CD0ECD7192A010E1626000E17224E
:102A8800000E1822D890183217321632000E16147B
:102A98001B6E000E17141C6EFF0E18141D6E1B50B3
:102AA8001C101D10D8B406D0E6D71906D8901636D3
:102AB8001736183617BE03D0020E1960F6D719A0BC
:102AC800179ED8901932195018121A50D8A4188E77
:102AD80016C016F017C017F018C018F01200196EBB
:102AE800000E476E1904D8A44ED01950010DD30E0C
:102AF800F324D96E000EF420DA6E1950010DD50EAC
:102B0800F324E16E000EF420E26EDE50E618D8B42D
:102B18003AD09D9A1950800D000E166E060E176E4B
:102B2800F3501626F45017221950010DD30EF32432
:102B3800D96E000EF420DA6EDFCF18F0010EDF2612
:102B48001850010DF3501624D96EF4501720DA6E80
:102B5800DF50476E1950010DD30EF324D96E000EC5
:102B6800F420DA6E800EDE18D8A40AD01950010DB0
:102B7800D30EF324D96E000EF420DA6E010EDF6E48
:102B88009D8A47501200FF0E120039C016F03AC055
:102B980017F03BC018F03CC019F077C023F078C09C
:102BA80024F0D89023362436D8902336243623C0F0
:102BB8001AF024C01BF01C6A1D6A17EC18F0FF0EEF
:102BC8001624256EFF0E1720266E26500001D96F99
:102BD80025C0D8F075C0D7F0D705D8A414D0000EFA
:102BE800AB6E000EAC6E000EB86E948ED9C0B0FFFE
:102BF800D8C0AFFFAC84B886B88CAC8AAB88AB8E33
:102C08009E9A9F8A9D8AD751010DD50EF324D96EBD
:102C1800000EF420DA6E010EDF6ED751010DD30ECF
:102C2800F324D96E000EF420DA6E010EDF6EF28EF8
:102C3800F28C12001C6E1C04D8A440D0938093829E
:102C48003DD0185004E1810E175CD8A002D02F0E99
:102C580001D02E0E1B6E1C04D8A404D01BC0C6FFC6
:102C680017C0C8FF1C04D8A431D0280EC66E0AD0DD
:102C7800C78E0B0E05D0C79E1D0E02D0C78E770ECD
:102C8800C86E24D017C019F018C01AF01A50000ADC
:102C9800D8B407D0010AD8B407D0020AD8B409D0EA
:102CA800EDD71950640AEAD71950900AD8B4E3D777
:102CB800E5D71950E80AD8B4DBD7E0D71650000A90
:102CC800D8B4D0D7010AD8B4BCD7CCD71C04D8A460
:102CD8001200000EC56E9E96A1961200166E36D092
:102CE8001650010DDE0EF324F66E0C0EF420F76E6E
:102CF8000800F55080140009D8B402D0010E120063
:102D0800000E12001650010DDE0EF324F66E0C0EA6
:102D1800F420F76E0800F55081140009D8B402D0E9
:102D2800010E1200000E12001650010DDE0EF324E3
:102D3800F66E0C0EF420F76E0800F55082140009A8
:102D4800D8B402D0010E1200000E12001650010D68
:102D5800CB0EF324F66E0C0EF420F76E0800F55037
:102D6800000AD8B4BDD7010AD8B4CCD7030AD8B45E
:102D7800DBD7000E12000600FACF04F0FBCF05F0F7
:102D8800E9CF06F0EACF07F0E1CF08F0E2CF09F08B
:102D9800D9CF0AF0DACF0BF0F3CF0CF0F4CF0DF067
:102DA800F6CF0EF0F7CF0FF0F8CF10F0F5CF11F007
:102DB8004AC012F04BC013F04CC014F04DC015F0CF
:102DC8008CEC19F015C04DF014C04CF013C04BF04A
:102DD80012C04AF011C0F5FF10C0F8FF0FC0F7FF8E
:102DE8000EC0F6FF0DC0F4FF0CC0F3FF0BC0DAFFF6
:102DF8000AC0D9FF09C0E2FF08C0E1FF07C0EAFF27
:102E080006C0E9FF05C0FBFF04C0FAFF4A921100A3
:102E180032D07BC075F07CC076F07DC077F07EC084
:102E280078F07DC016F07EC017F041EC1AF016C09D
:102E380079F017C07AF050EC17F00001755176114F
:102E4800D8A405D07BC07BF07CC07CF01200010EBA
:102E58007B25166E000E7C21176E7DC0F6FF7EC0A6
:102E6800F7FF0800F550186E196A7EEC1AF016C0C4
:102E78007BF017C07CF000017B517C11D8B407D0DF
:102E88007BC0D9FF7CC0DAFFDF50D8A4C2D7000EC0
:102E98007B6F000E7C6F120035D075C0D9FF76C0ED
:102EA800DAFFDF50D8B40FD075C0D9FF76C0DAFF8B
:102EB800DF501C6E77C0F6FF78C0F7FF0800F550AA
:102EC8001C18D8B41AD077C0F6FF78C0F7FF0800EE
:102ED800F5501C6E1D6A1C1E1D1E1C4A1D2A75C03D
:102EE800D9FF76C0DAFFDF501E6E1E501C24000189
:102EF800756F000E1D20766F12000001754B762B42
:102F0800774B782B00017907D8A07A077929C5E192
:102F18007A29D8A4C2D7000E766F000E756F1200FA
:102F2800000E1B6E19AE06D0186C191ED8B0192ADF
:102F3800010E1B6E17AE06D0166C171ED8B0172AD6
:102F4800010E1B1A000E1D6E000E1C6E1850191073
:102F5800D8B41CD0010E1A6E04D0D8901836193681
:102F68001A2A19AEFAD7D8901C361D361850165C96
:102F780019501758D8A005D01850165E1950175A6E
:102F88001C80D890193218321A2EEDD71B50D8B49D
:102F980004D01C6C1D1ED8B01D2A1CC016F01DC004
:102FA80017F01200000E1E6E000E1F6E000E206E2F
:102FB800000E216E1A501B101C101D10D8B42AD0F8
:102FC800010E226E06D0D8901A361B361C361D36D6
:102FD800222A1DA6F8D7D8901E361F36203621364D
:102FE8001A50165C1B5017581C5018581D50195869
:102FF800D8A009D01A50165E1B50175A1C50185AE0
:103008001D50195A1E80D8901D321C321B321A329C
:10301800222EE1D71EC016F01FC017F020C018F0EE
:1030280021C019F01200000E1E6E000E1F6E000E59
:10303800206E000E216E1A501B101C101D10D8B4E3
:103048002AD0010E226E06D0D8901A361B361C36AE
:103058001D36222A1DAEF8D7D8901E361F362036C8
:1030680021361A50165C1B5017581C5018581D5002
:103078001958D8A009D01A50165E1B50175A1C5060
:10308800185A1D50195A1E80D8901D321C321B32F6
:103098001A32222EE1D71EC016F01FC017F020C02A
:1030A80018F021C019F0120016C0CDF017C0CEF0EC
:1030B800020E1624186E000E1720196E18C0F6FF9F
:1030C80019C0F7FF0800F5CFCFF0030E1624186ECD
:1030D800000E1720196E18C0F6FF19C0F7FF080078
:1030E800F5CFD0F0040E1624186E000E1720196EB6
:1030F80018C0F6FF19C0F7FF0800F5CFD1F0050E8C
:103108001624186E000E1720196E18C0F6FF19C085
:10311800F7FF0800F5CFD2F012001C6E1C50010D0D
:10312800DE0EF324F66E0C0EF420F76E0800F5CFD1
:103138001DF01D500008176E1704196E1C50010D64
:10314800CB0EF324F66E0C0EF420F76E0800F55043
:10315800176E186A920E17241A6E0F0E18201B6E1F
:103168001650D8B407D01AC0D9FF1BC0DAFF1D50BB
:10317800DF1212001AC0D9FF1BC0DAFF1950DF1680
:1031880012001C6E1C50010DDE0EF324F66E0C0EA0
:10319800F420F76E0800F5CF1DF01D500008176EDB
:1031A8001704196E1C50010DCB0EF324F66E0C0E8D
:1031B800F420F76E0800F550176E186A890E172468
:1031C8001A6E0F0E18201B6E1650D8B407D01AC0EE
:1031D800D9FF1BC0DAFF1D50DF1212001AC0D9FF39
:1031E8001BC0DAFF1950DF1612001A501B101C10F2
:1031F8001D10D8B424D0010E1E6E06D0D8901A36F1
:103208001B361C361D361E2A1DAEF8D71A50165C02
:103218001B5017581C5018581D501958D8A008D0C2
:103228001A50165E1B50175A1C50185A1D50195A1E
:10323800D8901D321C321B321A321E2EE7D716C008
:1032480016F017C017F018C018F019C019F01200BE
:103258000001D451D619D8B422D0000E446E000E05
:10326800436E44BE06D0445013E1080E435CD8B008
:103278000FD0010E73EC15F0276E8C0E4324D96E17
:10328800000E4420DA6E27C0DFFF434A442AE9D7FC
:103298008C0E00018A6F000E8B6F0AEC14F0F10E91
:1032A800F66E0C0EF76E0800F5506AEC14F012007A
:1032B8008E0E226E07D00001D8907833773376339C
:1032C8007533222A000E000175151E6E000E761544
:1032D8001F6E000E7715206EFF0E7815216E1E509A
:1032E8001F1020102110D8A4E6D775C016F076C09C
:1032F80017F077C018F022C019F0000E1A6E1CECF7
:1033080015F016C075F017C076F018C077F01200E7
:103318009EAA12009E9AAECF02F07F0E0001D61927
:10332800D8B402D0D62901D0010E036E0350D419A7
:10333800D8B410D020EED6F0DFCF01F0010EDF2692
:103348000150010D800EF324D96E060EF420DA6EBA
:1033580002C0DFFF800ED619D8A41200010ED66F66
:103368001200000E1E6E070E1E6401D018D01E50EB
:10337800020DDB0EF324D96E000EF420DA6EDECFD8
:1033880016F0DDCF17F0000E196E000E186E000E45
:103398001B6E800E1A6E17EC1BF01E2AE4D7000E67
:1033A8000001C86F000EC76F000ECA6F000EC96F0C
:1033B800120018C01FF019C020F016C01DF017C069
:1033C8001EF010D01FC0D9FF20C0DAFFDF501C6EDE
:1033D8001F4A202A1DC0D9FF1EC0DAFF1CC0DFFF0C
:1033E8001D4A1E2A1A06D8A01B061A28EBE11B281C
:1033F800D8B41200E7D718501910D8B418D0010E55
:103408001A6E04D0D890183619361A2A19AEFAD777
:103418001850165C19501758D8A004D01850165ECA
:103428001950175AD890193218321A2EF1D716C0D7
:1034380016F017C017F01200000185518611871188
:10344800D8B406D0000E851B000E861B800E871B85
:1034580082C07CF083C07DF084C07EF085C07FF0A0
:1034680086C080F087C081F0F3EC0FF07CC082F05A
:103478007DC083F07EC084F0120016C01AF017C019
:103488001BF002D01A4A1B2A1AC0F6FF1BC0F7FF0E
:103498000800F5500009D8A4F5D716C018F017C0D1
:1034A80019F0181E191E184A192A1A501824166ECF
:1034B8001B501920176E12001A6E1A04D8A4120095
:1034C800C5CF16F01F0E1616D8B402D0010E01D0C3
:1034D800000E176E186AC7A403D0196A192A01D0FA
:1034E800196A19501712000E181217501810D8B46C
:1034F8001200E6D716C0D9FF17C0DAFF1850DE1839
:10350800D8A405D016C016F017C017F0120016C0C0
:10351800D9FF17C0DAFF164A172ADF50D8A4EAD70E
:10352800000E166E000E176E1200D08ED0B202D0AA
:10353800D082D080D350030B0001BC6F010EBC6554
:1035480002D0D3A4FED743EC1BF010EC1CF02FECF8
:1035580013F00BEC1CF0FDD7FFD763EF06F01E6EDF
:103568001E50D4EC1BF048C01BF01E50B8EC1BF0EA
:103578000009D8B40AD0000E1B6E1E50B8EC1BF020
:103588001DC01BF01E50B8EC1BF01E50C9EC1BF000
:103598001200266E0DD088C0F6FF89C0F7FF08001C
:1035A800F5CF75F0265038EC0BF00001884B892BCD
:1035B80088C0F6FF89C0F7FF0800F5500009D8B4A5
:1035C8001200E9D717501810D8B408D017C0D9FF7F
:1035D80018C0DAFFDE2A000EDD22120001D8120020
:1035E8000500FA6E4550FD6E4650FE6EF850FF6EAF
:1035F800FA50195012009C0E01019C6F010E9D6F2C
:10360800010E0001D76FE60E0101946F370E956F1A
:103618009AC196F19BC197F19C0E986F010E996F14
:1036280059EC1BF0120016C01CF017C01DF008D092
:103638001CC0D9FF1DC0DAFF18C0DFFF1C4A1D2AB5
:103648001A06D8A01B061A28F3E11B28D8B41200C2
:10365800EFD7166E1650010DD50EF324D96E000E55
:10366800F420DA6E010EDF6E1650010DD30EF3242E
:10367800D96E000EF420DA6E010EDF6E1200000E15
:10368800896E000E8A6E400E8B6E000E926E000ED2
:10369800936E949094929494949C949E000E806E51
:1036A800000E816E000E826E120094C145F095C125
:1036B80046F0000E0101806F000E816F96C182F105
:1036C80097C183F198C184F199C185F194EC07F011
:1036D800120016501802F3CF1AF0F4CF1BF0165050
:1036E8001902F3501B2617501802F3501B261AC054
:1036F80016F01BC017F0120016501802F3CF1AF07C
:10370800F4CF1BF016501902F3501B26175018025D
:10371800F3501B261AC016F01BC017F01200000148
:1037280079517A117B11D8B406D0000E791B000E9E
:103738007A1B800E7B1B79C079F07AC07AF07BC047
:103748007BF012001E6E1E50166E176A186A8E0ED7
:10375800196E000E1A6E1CEC15F016C075F017C025
:1037680076F018C077F012001C6E1C5060EC1AF04E
:103778001C04D8A408D01BC0C9FFC5BC02D0010EC8
:103788001200000E1200000E12001B6E1B5060EC9F
:103798001AF01B04D8A41200C584C5A41200FDD7D2
:1037A8001B6E1B5060EC1AF01B04D8A41200C580D5
:1037B800C5A01200FDD70A00070006000F000E0082
:1037C8000D0001000000006CDC021E6E4950010A69
:1037D800496E49C016F01E50C5EC18F01200166E5E
:1037E8000001D705D8A41200ACA2FED716C0ADFFC1
:1037F800120000018002000280030003800400041C
:103808000105FF0E040F090F0E0F130F180FC3EC5D
:1038180014F02CEC19F012000F0EC16E070EB46EE6
:0238280012008C
:00000001FF
